{
  "_format": "hh-sol-artifact-1",
  "contractName": "ArtistPoolFormation",
  "sourceName": "contracts/ArtistPoolFormation.sol",
  "abi": [
    {
      "anonymous": false,
      "inputs": [
        {
          "indexed": true,
          "internalType": "address",
          "name": "artistAddress",
          "type": "address"
        },
        {
          "indexed": false,
          "internalType": "string",
          "name": "artistName",
          "type": "string"
        }
      ],
      "name": "ArtistAdded",
      "type": "event"
    },
    {
      "anonymous": false,
      "inputs": [
        {
          "indexed": true,
          "internalType": "address",
          "name": "artistAddress",
          "type": "address"
        }
      ],
      "name": "ArtistRemoved",
      "type": "event"
    },
    {
      "anonymous": false,
      "inputs": [
        {
          "indexed": true,
          "internalType": "address",
          "name": "artistAddress",
          "type": "address"
        }
      ],
      "name": "FirstArtistSelected",
      "type": "event"
    },
    {
      "inputs": [
        {
          "internalType": "address",
          "name": "_artistAddress",
          "type": "address"
        },
        {
          "internalType": "string",
          "name": "_artistName",
          "type": "string"
        }
      ],
      "name": "addArtist",
      "outputs": [],
      "stateMutability": "nonpayable",
      "type": "function"
    },
    {
      "inputs": [
        {
          "internalType": "uint256",
          "name": "",
          "type": "uint256"
        }
      ],
      "name": "artists",
      "outputs": [
        {
          "internalType": "address",
          "name": "artistAddress",
          "type": "address"
        },
        {
          "internalType": "string",
          "name": "artistName",
          "type": "string"
        }
      ],
      "stateMutability": "view",
      "type": "function"
    },
    {
      "inputs": [],
      "name": "getAllArtists",
      "outputs": [
        {
          "internalType": "address[]",
          "name": "",
          "type": "address[]"
        }
      ],
      "stateMutability": "view",
      "type": "function"
    },
    {
      "inputs": [
        {
          "internalType": "address",
          "name": "",
          "type": "address"
        }
      ],
      "name": "isArtistInPool",
      "outputs": [
        {
          "internalType": "bool",
          "name": "",
          "type": "bool"
        }
      ],
      "stateMutability": "view",
      "type": "function"
    },
    {
      "inputs": [
        {
          "internalType": "address",
          "name": "_artistAddress",
          "type": "address"
        }
      ],
      "name": "removeArtist",
      "outputs": [],
      "stateMutability": "nonpayable",
      "type": "function"
    },
    {
      "inputs": [],
      "name": "selectFirstArtist",
      "outputs": [],
      "stateMutability": "nonpayable",
      "type": "function"
    }
  ],
  "bytecode": "0x608060405234801561001057600080fd5b50611527806100206000396000f3fe608060405234801561001057600080fd5b50600436106100625760003560e01c80631a65745b146100675780632f1be94514610083578063978d5b76146100b3578063cd7e10c1146100cf578063d5c0695e14610100578063f803ace31461010a575b600080fd5b610081600480360381019061007c9190610b4a565b610128565b005b61009d60048036038101906100989190610ba6565b610313565b6040516100aa9190610bee565b60405180910390f35b6100cd60048036038101906100c89190610ba6565b610333565b005b6100e960048036038101906100e49190610c3f565b610634565b6040516100f7929190610cfa565b60405180910390f35b610108610710565b005b610112610824565b60405161011f9190610de8565b60405180910390f35b600160008373ffffffffffffffffffffffffffffffffffffffff1673ffffffffffffffffffffffffffffffffffffffff16815260200190815260200160002060009054906101000a900460ff16156101b5576040517f08c379a00000000000000000000000000000000000000000000000000000000081526004016101ac90610e56565b60405180910390fd5b600060405180604001604052808473ffffffffffffffffffffffffffffffffffffffff16815260200183815250908060018154018082558091505060019003906000526020600020906002020160009091909190915060008201518160000160006101000a81548173ffffffffffffffffffffffffffffffffffffffff021916908373ffffffffffffffffffffffffffffffffffffffff16021790555060208201518160010190816102679190611082565b50505060018060008473ffffffffffffffffffffffffffffffffffffffff1673ffffffffffffffffffffffffffffffffffffffff16815260200190815260200160002060006101000a81548160ff0219169083151502179055508173ffffffffffffffffffffffffffffffffffffffff167fb71c5325df43b93adf4eb041ada4db3a793f3cc8a0b4928fcca92de3e6d2e4c8826040516103079190611154565b60405180910390a25050565b60016020528060005260406000206000915054906101000a900460ff1681565b600160008273ffffffffffffffffffffffffffffffffffffffff1673ffffffffffffffffffffffffffffffffffffffff16815260200190815260200160002060009054906101000a900460ff166103bf576040517f08c379a00000000000000000000000000000000000000000000000000000000081526004016103b6906111c2565b60405180910390fd5b60005b600080549050811015610595578173ffffffffffffffffffffffffffffffffffffffff16600082815481106103fa576103f96111e2565b5b906000526020600020906002020160000160009054906101000a900473ffffffffffffffffffffffffffffffffffffffff1673ffffffffffffffffffffffffffffffffffffffff1603610582576000600160008054905061045b9190611240565b8154811061046c5761046b6111e2565b5b90600052602060002090600202016000828154811061048e5761048d6111e2565b5b90600052602060002090600202016000820160009054906101000a900473ffffffffffffffffffffffffffffffffffffffff168160000160006101000a81548173ffffffffffffffffffffffffffffffffffffffff021916908373ffffffffffffffffffffffffffffffffffffffff16021790555060018201816001019081610517919061128a565b50905050600080548061052d5761052c611372565b5b6001900381819060005260206000209060020201600080820160006101000a81549073ffffffffffffffffffffffffffffffffffffffff02191690556001820160006105799190610935565b50509055610595565b808061058d906113a1565b9150506103c2565b506000600160008373ffffffffffffffffffffffffffffffffffffffff1673ffffffffffffffffffffffffffffffffffffffff16815260200190815260200160002060006101000a81548160ff0219169083151502179055508073ffffffffffffffffffffffffffffffffffffffff167f9d7bad3f21c51eaf001a18afc7f3666e2f9413dafcb58ea9413eeea76b6a2cd360405160405180910390a250565b6000818154811061064457600080fd5b90600052602060002090600202016000915090508060000160009054906101000a900473ffffffffffffffffffffffffffffffffffffffff169080600101805461068d90610ea5565b80601f01602080910402602001604051908101604052809291908181526020018280546106b990610ea5565b80156107065780601f106106db57610100808354040283529160200191610706565b820191906000526020600020905b8154815290600101906020018083116106e957829003601f168201915b5050505050905082565b6000808054905011610757576040517f08c379a000000000000000000000000000000000000000000000000000000000815260040161074e90611435565b60405180910390fd5b600080805490504260405160200161076f9190611476565b6040516020818303038152906040528051906020012060001c61079291906114c0565b905060008082815481106107a9576107a86111e2565b5b906000526020600020906002020160000160009054906101000a900473ffffffffffffffffffffffffffffffffffffffff1690508073ffffffffffffffffffffffffffffffffffffffff167fa3b71fea61ad4a1384107e4b77f0b769f09d00c5929c78d41a9ddc1000770c4160405160405180910390a25050565b60606000808054905067ffffffffffffffff81111561084657610845610a1f565b5b6040519080825280602002602001820160405280156108745781602001602082028036833780820191505090505b50905060005b60008054905081101561092d576000818154811061089b5761089a6111e2565b5b906000526020600020906002020160000160009054906101000a900473ffffffffffffffffffffffffffffffffffffffff168282815181106108e0576108df6111e2565b5b602002602001019073ffffffffffffffffffffffffffffffffffffffff16908173ffffffffffffffffffffffffffffffffffffffff16815250508080610925906113a1565b91505061087a565b508091505090565b50805461094190610ea5565b6000825580601f106109535750610972565b601f0160209004906000526020600020908101906109719190610975565b5b50565b5b8082111561098e576000816000905550600101610976565b5090565b6000604051905090565b600080fd5b600080fd5b600073ffffffffffffffffffffffffffffffffffffffff82169050919050565b60006109d1826109a6565b9050919050565b6109e1816109c6565b81146109ec57600080fd5b50565b6000813590506109fe816109d8565b92915050565b600080fd5b600080fd5b6000601f19601f8301169050919050565b7f4e487b7100000000000000000000000000000000000000000000000000000000600052604160045260246000fd5b610a5782610a0e565b810181811067ffffffffffffffff82111715610a7657610a75610a1f565b5b80604052505050565b6000610a89610992565b9050610a958282610a4e565b919050565b600067ffffffffffffffff821115610ab557610ab4610a1f565b5b610abe82610a0e565b9050602081019050919050565b82818337600083830152505050565b6000610aed610ae884610a9a565b610a7f565b905082815260208101848484011115610b0957610b08610a09565b5b610b14848285610acb565b509392505050565b600082601f830112610b3157610b30610a04565b5b8135610b41848260208601610ada565b91505092915050565b60008060408385031215610b6157610b6061099c565b5b6000610b6f858286016109ef565b925050602083013567ffffffffffffffff811115610b9057610b8f6109a1565b5b610b9c85828601610b1c565b9150509250929050565b600060208284031215610bbc57610bbb61099c565b5b6000610bca848285016109ef565b91505092915050565b60008115159050919050565b610be881610bd3565b82525050565b6000602082019050610c036000830184610bdf565b92915050565b6000819050919050565b610c1c81610c09565b8114610c2757600080fd5b50565b600081359050610c3981610c13565b92915050565b600060208284031215610c5557610c5461099c565b5b6000610c6384828501610c2a565b91505092915050565b610c75816109c6565b82525050565b600081519050919050565b600082825260208201905092915050565b60005b83811015610cb5578082015181840152602081019050610c9a565b60008484015250505050565b6000610ccc82610c7b565b610cd68185610c86565b9350610ce6818560208601610c97565b610cef81610a0e565b840191505092915050565b6000604082019050610d0f6000830185610c6c565b8181036020830152610d218184610cc1565b90509392505050565b600081519050919050565b600082825260208201905092915050565b6000819050602082019050919050565b610d5f816109c6565b82525050565b6000610d718383610d56565b60208301905092915050565b6000602082019050919050565b6000610d9582610d2a565b610d9f8185610d35565b9350610daa83610d46565b8060005b83811015610ddb578151610dc28882610d65565b9750610dcd83610d7d565b925050600181019050610dae565b5085935050505092915050565b60006020820190508181036000830152610e028184610d8a565b905092915050565b7f41727469737420616c726561647920696e20706f6f6c00000000000000000000600082015250565b6000610e40601683610c86565b9150610e4b82610e0a565b602082019050919050565b60006020820190508181036000830152610e6f81610e33565b9050919050565b7f4e487b7100000000000000000000000000000000000000000000000000000000600052602260045260246000fd5b60006002820490506001821680610ebd57607f821691505b602082108103610ed057610ecf610e76565b5b50919050565b60008190508160005260206000209050919050565b60006020601f8301049050919050565b600082821b905092915050565b600060088302610f387fffffffffffffffffffffffffffffffffffffffffffffffffffffffffffffffff82610efb565b610f428683610efb565b95508019841693508086168417925050509392505050565b6000819050919050565b6000610f7f610f7a610f7584610c09565b610f5a565b610c09565b9050919050565b6000819050919050565b610f9983610f64565b610fad610fa582610f86565b848454610f08565b825550505050565b600090565b610fc2610fb5565b610fcd818484610f90565b505050565b5b81811015610ff157610fe6600082610fba565b600181019050610fd3565b5050565b601f8211156110365761100781610ed6565b61101084610eeb565b8101602085101561101f578190505b61103361102b85610eeb565b830182610fd2565b50505b505050565b600082821c905092915050565b60006110596000198460080261103b565b1980831691505092915050565b60006110728383611048565b9150826002028217905092915050565b61108b82610c7b565b67ffffffffffffffff8111156110a4576110a3610a1f565b5b6110ae8254610ea5565b6110b9828285610ff5565b600060209050601f8311600181146110ec57600084156110da578287015190505b6110e48582611066565b86555061114c565b601f1984166110fa86610ed6565b60005b82811015611122578489015182556001820191506020850194506020810190506110fd565b8683101561113f578489015161113b601f891682611048565b8355505b6001600288020188555050505b505050505050565b6000602082019050818103600083015261116e8184610cc1565b905092915050565b7f417274697374206e6f7420696e20706f6f6c0000000000000000000000000000600082015250565b60006111ac601283610c86565b91506111b782611176565b602082019050919050565b600060208201905081810360008301526111db8161119f565b9050919050565b7f4e487b7100000000000000000000000000000000000000000000000000000000600052603260045260246000fd5b7f4e487b7100000000000000000000000000000000000000000000000000000000600052601160045260246000fd5b600061124b82610c09565b915061125683610c09565b925082820390508181111561126e5761126d611211565b5b92915050565b60008154905061128381610ea5565b9050919050565b818103611298575050611370565b6112a182611274565b67ffffffffffffffff8111156112ba576112b9610a1f565b5b6112c48254610ea5565b6112cf828285610ff5565b6000601f8311600181146112fe57600084156112ec578287015490505b6112f68582611066565b865550611369565b601f19841661130c87610ed6565b965061131786610ed6565b60005b8281101561133f5784890154825560018201915060018501945060208101905061131a565b8683101561135c5784890154611358601f891682611048565b8355505b6001600288020188555050505b5050505050505b565b7f4e487b7100000000000000000000000000000000000000000000000000000000600052603160045260246000fd5b60006113ac82610c09565b91507fffffffffffffffffffffffffffffffffffffffffffffffffffffffffffffffff82036113de576113dd611211565b5b600182019050919050565b7f4e6f206172746973747320696e20706f6f6c0000000000000000000000000000600082015250565b600061141f601283610c86565b915061142a826113e9565b602082019050919050565b6000602082019050818103600083015261144e81611412565b9050919050565b6000819050919050565b61147061146b82610c09565b611455565b82525050565b6000611482828461145f565b60208201915081905092915050565b7f4e487b7100000000000000000000000000000000000000000000000000000000600052601260045260246000fd5b60006114cb82610c09565b91506114d683610c09565b9250826114e6576114e5611491565b5b82820690509291505056fea264697066735822122040582773a4cef66ca83910738724b610121dd2965964a04d7893137b947e477f64736f6c63430008130033",
  "linkReferences": {},
  "deployedLinkReferences": {}
}